{"contracts/Greeter.sol":{"VotingSystem":{"abi":[{"inputs":[],"stateMutability":"nonpayable","type":"constructor"},{"anonymous":false,"inputs":[{"indexed":true,"internalType":"address","name":"voter","type":"address"},{"indexed":true,"internalType":"uint256","name":"candidateId","type":"uint256"}],"name":"Voted","type":"event"},{"anonymous":false,"inputs":[{"indexed":true,"internalType":"address","name":"voter","type":"address"}],"name":"VoterRegistered","type":"event"},{"inputs":[],"name":"candidateCount","outputs":[{"internalType":"uint256","name":"","type":"uint256"}],"stateMutability":"view","type":"function"},{"inputs":[{"internalType":"uint256","name":"","type":"uint256"}],"name":"candidates","outputs":[{"internalType":"uint256","name":"id","type":"uint256"},{"internalType":"string","name":"name","type":"string"},{"internalType":"uint256","name":"voteCount","type":"uint256"}],"stateMutability":"view","type":"function"},{"inputs":[{"internalType":"uint256","name":"_candidateId","type":"uint256"}],"name":"getVotes","outputs":[{"internalType":"uint256","name":"","type":"uint256"}],"stateMutability":"view","type":"function"},{"inputs":[],"name":"register","outputs":[],"stateMutability":"nonpayable","type":"function"},{"inputs":[{"internalType":"uint256","name":"_candidateId","type":"uint256"}],"name":"vote","outputs":[],"stateMutability":"nonpayable","type":"function"},{"inputs":[{"internalType":"address","name":"","type":"address"}],"name":"voters","outputs":[{"internalType":"bool","name":"","type":"bool"}],"stateMutability":"view","type":"function"}],"evm":{"bytecode":{"linkReferences":{},"object":"608060405234801561001057600080fd5b506100556040518060400160405280600b81526020017f43616e646964617465203100000000000000000000000000000000000000000081525061009e60201b60201c565b6100996040518060400160405280600b81526020017f43616e646964617465203200000000000000000000000000000000000000000081525061009e60201b60201c565b6104b1565b600160008154809291906100b190610151565b9190505550604051806060016040528060015481526020018281526020016000815250600080600154815260200190815260200160002060008201518160000155602082015181600101908161010791906103df565b506040820151816002015590505050565b7f4e487b7100000000000000000000000000000000000000000000000000000000600052601160045260246000fd5b6000819050919050565b600061015c82610147565b91507fffffffffffffffffffffffffffffffffffffffffffffffffffffffffffffffff820361018e5761018d610118565b5b600182019050919050565b600081519050919050565b7f4e487b7100000000000000000000000000000000000000000000000000000000600052604160045260246000fd5b7f4e487b7100000000000000000000000000000000000000000000000000000000600052602260045260246000fd5b6000600282049050600182168061021a57607f821691505b60208210810361022d5761022c6101d3565b5b50919050565b60008190508160005260206000209050919050565b60006020601f8301049050919050565b600082821b905092915050565b6000600883026102957fffffffffffffffffffffffffffffffffffffffffffffffffffffffffffffffff82610258565b61029f8683610258565b95508019841693508086168417925050509392505050565b6000819050919050565b60006102dc6102d76102d284610147565b6102b7565b610147565b9050919050565b6000819050919050565b6102f6836102c1565b61030a610302826102e3565b848454610265565b825550505050565b600090565b61031f610312565b61032a8184846102ed565b505050565b5b8181101561034e57610343600082610317565b600181019050610330565b5050565b601f8211156103935761036481610233565b61036d84610248565b8101602085101561037c578190505b61039061038885610248565b83018261032f565b50505b505050565b600082821c905092915050565b60006103b660001984600802610398565b1980831691505092915050565b60006103cf83836103a5565b9150826002028217905092915050565b6103e882610199565b67ffffffffffffffff811115610401576104006101a4565b5b61040b8254610202565b610416828285610352565b600060209050601f8311600181146104495760008415610437578287015190505b61044185826103c3565b8655506104a9565b601f19841661045786610233565b60005b8281101561047f5784890151825560018201915060208501945060208101905061045a565b8683101561049c5784890151610498601f8916826103a5565b8355505b6001600288020188555050505b505050505050565b610ac0806104c06000396000f3fe608060405234801561001057600080fd5b50600436106100625760003560e01c80630121b93f146100675780631aa3a008146100835780633477ee2e1461008d578063a3ec138d146100bf578063a9a981a3146100ef578063ff9810991461010d575b600080fd5b610081600480360381019061007c919061061d565b61013d565b005b61008b610371565b005b6100a760048036038101906100a2919061061d565b61049b565b6040516100b6939291906106e9565b60405180910390f35b6100d960048036038101906100d49190610785565b61054d565b6040516100e691906107cd565b60405180910390f35b6100f761056d565b60405161010491906107e8565b60405180910390f35b6101276004803603810190610122919061061d565b610573565b60405161013491906107e8565b60405180910390f35b600260003373ffffffffffffffffffffffffffffffffffffffff1673ffffffffffffffffffffffffffffffffffffffff16815260200190815260200160002060009054906101000a900460ff166101c9576040517f08c379a00000000000000000000000000000000000000000000000000000000081526004016101c09061084f565b60405180910390fd5b600260003373ffffffffffffffffffffffffffffffffffffffff1673ffffffffffffffffffffffffffffffffffffffff16815260200190815260200160002060009054906101000a900460ff1615610256576040517f08c379a000000000000000000000000000000000000000000000000000000000815260040161024d906108bb565b60405180910390fd5b60008111801561026857506001548111155b6102a7576040517f08c379a000000000000000000000000000000000000000000000000000000000815260040161029e90610927565b60405180910390fd5b6001600260003373ffffffffffffffffffffffffffffffffffffffff1673ffffffffffffffffffffffffffffffffffffffff16815260200190815260200160002060006101000a81548160ff021916908315150217905550600080828152602001908152602001600020600201600081548092919061032590610976565b9190505550803373ffffffffffffffffffffffffffffffffffffffff167f4d99b957a2bc29a30ebd96a7be8e68fe50a3c701db28a91436490b7d53870ca460405160405180910390a350565b600260003373ffffffffffffffffffffffffffffffffffffffff1673ffffffffffffffffffffffffffffffffffffffff16815260200190815260200160002060009054906101000a900460ff16156103fe576040517f08c379a00000000000000000000000000000000000000000000000000000000081526004016103f590610a0a565b60405180910390fd5b6001600260003373ffffffffffffffffffffffffffffffffffffffff1673ffffffffffffffffffffffffffffffffffffffff16815260200190815260200160002060006101000a81548160ff0219169083151502179055503373ffffffffffffffffffffffffffffffffffffffff167fb6be2187d059cc2a55fe29e0e503b566e1e0f8c8780096e185429350acffd3dd60405160405180910390a2565b60006020528060005260406000206000915090508060000154908060010180546104c490610a59565b80601f01602080910402602001604051908101604052809291908181526020018280546104f090610a59565b801561053d5780601f106105125761010080835404028352916020019161053d565b820191906000526020600020905b81548152906001019060200180831161052057829003601f168201915b5050505050908060020154905083565b60026020528060005260406000206000915054906101000a900460ff1681565b60015481565b6000808211801561058657506001548211155b6105c5576040517f08c379a00000000000000000000000000000000000000000000000000000000081526004016105bc90610927565b60405180910390fd5b600080838152602001908152602001600020600201549050919050565b600080fd5b6000819050919050565b6105fa816105e7565b811461060557600080fd5b50565b600081359050610617816105f1565b92915050565b600060208284031215610633576106326105e2565b5b600061064184828501610608565b91505092915050565b610653816105e7565b82525050565b600081519050919050565b600082825260208201905092915050565b60005b83811015610693578082015181840152602081019050610678565b60008484015250505050565b6000601f19601f8301169050919050565b60006106bb82610659565b6106c58185610664565b93506106d5818560208601610675565b6106de8161069f565b840191505092915050565b60006060820190506106fe600083018661064a565b818103602083015261071081856106b0565b905061071f604083018461064a565b949350505050565b600073ffffffffffffffffffffffffffffffffffffffff82169050919050565b600061075282610727565b9050919050565b61076281610747565b811461076d57600080fd5b50565b60008135905061077f81610759565b92915050565b60006020828403121561079b5761079a6105e2565b5b60006107a984828501610770565b91505092915050565b60008115159050919050565b6107c7816107b2565b82525050565b60006020820190506107e260008301846107be565b92915050565b60006020820190506107fd600083018461064a565b92915050565b7f566f746572206e6f7420726567697374657265642e0000000000000000000000600082015250565b6000610839601583610664565b915061084482610803565b602082019050919050565b600060208201905081810360008301526108688161082c565b9050919050565b7f566f7465722068617320616c726561647920766f7465642e0000000000000000600082015250565b60006108a5601883610664565b91506108b08261086f565b602082019050919050565b600060208201905081810360008301526108d481610898565b9050919050565b7f496e76616c69642063616e6469646174652049442e0000000000000000000000600082015250565b6000610911601583610664565b915061091c826108db565b602082019050919050565b6000602082019050818103600083015261094081610904565b9050919050565b7f4e487b7100000000000000000000000000000000000000000000000000000000600052601160045260246000fd5b6000610981826105e7565b91507fffffffffffffffffffffffffffffffffffffffffffffffffffffffffffffffff82036109b3576109b2610947565b5b600182019050919050565b7f566f7465722068617320616c726561647920726567697374657265642e000000600082015250565b60006109f4601d83610664565b91506109ff826109be565b602082019050919050565b60006020820190508181036000830152610a23816109e7565b9050919050565b7f4e487b7100000000000000000000000000000000000000000000000000000000600052602260045260246000fd5b60006002820490506001821680610a7157607f821691505b602082108103610a8457610a83610a2a565b5b5091905056fea2646970667358221220826e389f91c4465e635fe98474c0cc8c37e143903ff8bde543f3f5dc408b489864736f6c634300081b0033","opcodes":"PUSH1 0x80 PUSH1 0x40 MSTORE CALLVALUE DUP1 ISZERO PUSH2 0x10 JUMPI PUSH1 0x0 DUP1 REVERT JUMPDEST POP PUSH2 0x55 PUSH1 0x40 MLOAD DUP1 PUSH1 0x40 ADD PUSH1 0x40 MSTORE DUP1 PUSH1 0xB DUP2 MSTORE PUSH1 0x20 ADD PUSH32 0x43616E6469646174652031000000000000000000000000000000000000000000 DUP2 MSTORE POP PUSH2 0x9E PUSH1 0x20 SHL PUSH1 0x20 SHR JUMP JUMPDEST PUSH2 0x99 PUSH1 0x40 MLOAD DUP1 PUSH1 0x40 ADD PUSH1 0x40 MSTORE DUP1 PUSH1 0xB DUP2 MSTORE PUSH1 0x20 ADD PUSH32 0x43616E6469646174652032000000000000000000000000000000000000000000 DUP2 MSTORE POP PUSH2 0x9E PUSH1 0x20 SHL PUSH1 0x20 SHR JUMP JUMPDEST PUSH2 0x4B1 JUMP JUMPDEST PUSH1 0x1 PUSH1 0x0 DUP2 SLOAD DUP1 SWAP3 SWAP2 SWAP1 PUSH2 0xB1 SWAP1 PUSH2 0x151 JUMP JUMPDEST SWAP2 SWAP1 POP SSTORE POP PUSH1 0x40 MLOAD DUP1 PUSH1 0x60 ADD PUSH1 0x40 MSTORE DUP1 PUSH1 0x1 SLOAD DUP2 MSTORE PUSH1 0x20 ADD DUP3 DUP2 MSTORE PUSH1 0x20 ADD PUSH1 0x0 DUP2 MSTORE POP PUSH1 0x0 DUP1 PUSH1 0x1 SLOAD DUP2 MSTORE PUSH1 0x20 ADD SWAP1 DUP2 MSTORE PUSH1 0x20 ADD PUSH1 0x0 KECCAK256 PUSH1 0x0 DUP3 ADD MLOAD DUP2 PUSH1 0x0 ADD SSTORE PUSH1 0x20 DUP3 ADD MLOAD DUP2 PUSH1 0x1 ADD SWAP1 DUP2 PUSH2 0x107 SWAP2 SWAP1 PUSH2 0x3DF JUMP JUMPDEST POP PUSH1 0x40 DUP3 ADD MLOAD DUP2 PUSH1 0x2 ADD SSTORE SWAP1 POP POP POP JUMP JUMPDEST PUSH32 0x4E487B7100000000000000000000000000000000000000000000000000000000 PUSH1 0x0 MSTORE PUSH1 0x11 PUSH1 0x4 MSTORE PUSH1 0x24 PUSH1 0x0 REVERT JUMPDEST PUSH1 0x0 DUP2 SWAP1 POP SWAP2 SWAP1 POP JUMP JUMPDEST PUSH1 0x0 PUSH2 0x15C DUP3 PUSH2 0x147 JUMP JUMPDEST SWAP2 POP PUSH32 0xFFFFFFFFFFFFFFFFFFFFFFFFFFFFFFFFFFFFFFFFFFFFFFFFFFFFFFFFFFFFFFFF DUP3 SUB PUSH2 0x18E JUMPI PUSH2 0x18D PUSH2 0x118 JUMP JUMPDEST JUMPDEST PUSH1 0x1 DUP3 ADD SWAP1 POP SWAP2 SWAP1 POP JUMP JUMPDEST PUSH1 0x0 DUP2 MLOAD SWAP1 POP SWAP2 SWAP1 POP JUMP JUMPDEST PUSH32 0x4E487B7100000000000000000000000000000000000000000000000000000000 PUSH1 0x0 MSTORE PUSH1 0x41 PUSH1 0x4 MSTORE PUSH1 0x24 PUSH1 0x0 REVERT JUMPDEST PUSH32 0x4E487B7100000000000000000000000000000000000000000000000000000000 PUSH1 0x0 MSTORE PUSH1 0x22 PUSH1 0x4 MSTORE PUSH1 0x24 PUSH1 0x0 REVERT JUMPDEST PUSH1 0x0 PUSH1 0x2 DUP3 DIV SWAP1 POP PUSH1 0x1 DUP3 AND DUP1 PUSH2 0x21A JUMPI PUSH1 0x7F DUP3 AND SWAP2 POP JUMPDEST PUSH1 0x20 DUP3 LT DUP2 SUB PUSH2 0x22D JUMPI PUSH2 0x22C PUSH2 0x1D3 JUMP JUMPDEST JUMPDEST POP SWAP2 SWAP1 POP JUMP JUMPDEST PUSH1 0x0 DUP2 SWAP1 POP DUP2 PUSH1 0x0 MSTORE PUSH1 0x20 PUSH1 0x0 KECCAK256 SWAP1 POP SWAP2 SWAP1 POP JUMP JUMPDEST PUSH1 0x0 PUSH1 0x20 PUSH1 0x1F DUP4 ADD DIV SWAP1 POP SWAP2 SWAP1 POP JUMP JUMPDEST PUSH1 0x0 DUP3 DUP3 SHL SWAP1 POP SWAP3 SWAP2 POP POP JUMP JUMPDEST PUSH1 0x0 PUSH1 0x8 DUP4 MUL PUSH2 0x295 PUSH32 0xFFFFFFFFFFFFFFFFFFFFFFFFFFFFFFFFFFFFFFFFFFFFFFFFFFFFFFFFFFFFFFFF DUP3 PUSH2 0x258 JUMP JUMPDEST PUSH2 0x29F DUP7 DUP4 PUSH2 0x258 JUMP JUMPDEST SWAP6 POP DUP1 NOT DUP5 AND SWAP4 POP DUP1 DUP7 AND DUP5 OR SWAP3 POP POP POP SWAP4 SWAP3 POP POP POP JUMP JUMPDEST PUSH1 0x0 DUP2 SWAP1 POP SWAP2 SWAP1 POP JUMP JUMPDEST PUSH1 0x0 PUSH2 0x2DC PUSH2 0x2D7 PUSH2 0x2D2 DUP5 PUSH2 0x147 JUMP JUMPDEST PUSH2 0x2B7 JUMP JUMPDEST PUSH2 0x147 JUMP JUMPDEST SWAP1 POP SWAP2 SWAP1 POP JUMP JUMPDEST PUSH1 0x0 DUP2 SWAP1 POP SWAP2 SWAP1 POP JUMP JUMPDEST PUSH2 0x2F6 DUP4 PUSH2 0x2C1 JUMP JUMPDEST PUSH2 0x30A PUSH2 0x302 DUP3 PUSH2 0x2E3 JUMP JUMPDEST DUP5 DUP5 SLOAD PUSH2 0x265 JUMP JUMPDEST DUP3 SSTORE POP POP POP POP JUMP JUMPDEST PUSH1 0x0 SWAP1 JUMP JUMPDEST PUSH2 0x31F PUSH2 0x312 JUMP JUMPDEST PUSH2 0x32A DUP2 DUP5 DUP5 PUSH2 0x2ED JUMP JUMPDEST POP POP POP JUMP JUMPDEST JUMPDEST DUP2 DUP2 LT ISZERO PUSH2 0x34E JUMPI PUSH2 0x343 PUSH1 0x0 DUP3 PUSH2 0x317 JUMP JUMPDEST PUSH1 0x1 DUP2 ADD SWAP1 POP PUSH2 0x330 JUMP JUMPDEST POP POP JUMP JUMPDEST PUSH1 0x1F DUP3 GT ISZERO PUSH2 0x393 JUMPI PUSH2 0x364 DUP2 PUSH2 0x233 JUMP JUMPDEST PUSH2 0x36D DUP5 PUSH2 0x248 JUMP JUMPDEST DUP2 ADD PUSH1 0x20 DUP6 LT ISZERO PUSH2 0x37C JUMPI DUP2 SWAP1 POP JUMPDEST PUSH2 0x390 PUSH2 0x388 DUP6 PUSH2 0x248 JUMP JUMPDEST DUP4 ADD DUP3 PUSH2 0x32F JUMP JUMPDEST POP POP JUMPDEST POP POP POP JUMP JUMPDEST PUSH1 0x0 DUP3 DUP3 SHR SWAP1 POP SWAP3 SWAP2 POP POP JUMP JUMPDEST PUSH1 0x0 PUSH2 0x3B6 PUSH1 0x0 NOT DUP5 PUSH1 0x8 MUL PUSH2 0x398 JUMP JUMPDEST NOT DUP1 DUP4 AND SWAP2 POP POP SWAP3 SWAP2 POP POP JUMP JUMPDEST PUSH1 0x0 PUSH2 0x3CF DUP4 DUP4 PUSH2 0x3A5 JUMP JUMPDEST SWAP2 POP DUP3 PUSH1 0x2 MUL DUP3 OR SWAP1 POP SWAP3 SWAP2 POP POP JUMP JUMPDEST PUSH2 0x3E8 DUP3 PUSH2 0x199 JUMP JUMPDEST PUSH8 0xFFFFFFFFFFFFFFFF DUP2 GT ISZERO PUSH2 0x401 JUMPI PUSH2 0x400 PUSH2 0x1A4 JUMP JUMPDEST JUMPDEST PUSH2 0x40B DUP3 SLOAD PUSH2 0x202 JUMP JUMPDEST PUSH2 0x416 DUP3 DUP3 DUP6 PUSH2 0x352 JUMP JUMPDEST PUSH1 0x0 PUSH1 0x20 SWAP1 POP PUSH1 0x1F DUP4 GT PUSH1 0x1 DUP2 EQ PUSH2 0x449 JUMPI PUSH1 0x0 DUP5 ISZERO PUSH2 0x437 JUMPI DUP3 DUP8 ADD MLOAD SWAP1 POP JUMPDEST PUSH2 0x441 DUP6 DUP3 PUSH2 0x3C3 JUMP JUMPDEST DUP7 SSTORE POP PUSH2 0x4A9 JUMP JUMPDEST PUSH1 0x1F NOT DUP5 AND PUSH2 0x457 DUP7 PUSH2 0x233 JUMP JUMPDEST PUSH1 0x0 JUMPDEST DUP3 DUP2 LT ISZERO PUSH2 0x47F JUMPI DUP5 DUP10 ADD MLOAD DUP3 SSTORE PUSH1 0x1 DUP3 ADD SWAP2 POP PUSH1 0x20 DUP6 ADD SWAP5 POP PUSH1 0x20 DUP2 ADD SWAP1 POP PUSH2 0x45A JUMP JUMPDEST DUP7 DUP4 LT ISZERO PUSH2 0x49C JUMPI DUP5 DUP10 ADD MLOAD PUSH2 0x498 PUSH1 0x1F DUP10 AND DUP3 PUSH2 0x3A5 JUMP JUMPDEST DUP4 SSTORE POP JUMPDEST PUSH1 0x1 PUSH1 0x2 DUP9 MUL ADD DUP9 SSTORE POP POP POP JUMPDEST POP POP POP POP POP POP JUMP JUMPDEST PUSH2 0xAC0 DUP1 PUSH2 0x4C0 PUSH1 0x0 CODECOPY PUSH1 0x0 RETURN INVALID PUSH1 0x80 PUSH1 0x40 MSTORE CALLVALUE DUP1 ISZERO PUSH2 0x10 JUMPI PUSH1 0x0 DUP1 REVERT JUMPDEST POP PUSH1 0x4 CALLDATASIZE LT PUSH2 0x62 JUMPI PUSH1 0x0 CALLDATALOAD PUSH1 0xE0 SHR DUP1 PUSH4 0x121B93F EQ PUSH2 0x67 JUMPI DUP1 PUSH4 0x1AA3A008 EQ PUSH2 0x83 JUMPI DUP1 PUSH4 0x3477EE2E EQ PUSH2 0x8D JUMPI DUP1 PUSH4 0xA3EC138D EQ PUSH2 0xBF JUMPI DUP1 PUSH4 0xA9A981A3 EQ PUSH2 0xEF JUMPI DUP1 PUSH4 0xFF981099 EQ PUSH2 0x10D JUMPI JUMPDEST PUSH1 0x0 DUP1 REVERT JUMPDEST PUSH2 0x81 PUSH1 0x4 DUP1 CALLDATASIZE SUB DUP2 ADD SWAP1 PUSH2 0x7C SWAP2 SWAP1 PUSH2 0x61D JUMP JUMPDEST PUSH2 0x13D JUMP JUMPDEST STOP JUMPDEST PUSH2 0x8B PUSH2 0x371 JUMP JUMPDEST STOP JUMPDEST PUSH2 0xA7 PUSH1 0x4 DUP1 CALLDATASIZE SUB DUP2 ADD SWAP1 PUSH2 0xA2 SWAP2 SWAP1 PUSH2 0x61D JUMP JUMPDEST PUSH2 0x49B JUMP JUMPDEST PUSH1 0x40 MLOAD PUSH2 0xB6 SWAP4 SWAP3 SWAP2 SWAP1 PUSH2 0x6E9 JUMP JUMPDEST PUSH1 0x40 MLOAD DUP1 SWAP2 SUB SWAP1 RETURN JUMPDEST PUSH2 0xD9 PUSH1 0x4 DUP1 CALLDATASIZE SUB DUP2 ADD SWAP1 PUSH2 0xD4 SWAP2 SWAP1 PUSH2 0x785 JUMP JUMPDEST PUSH2 0x54D JUMP JUMPDEST PUSH1 0x40 MLOAD PUSH2 0xE6 SWAP2 SWAP1 PUSH2 0x7CD JUMP JUMPDEST PUSH1 0x40 MLOAD DUP1 SWAP2 SUB SWAP1 RETURN JUMPDEST PUSH2 0xF7 PUSH2 0x56D JUMP JUMPDEST PUSH1 0x40 MLOAD PUSH2 0x104 SWAP2 SWAP1 PUSH2 0x7E8 JUMP JUMPDEST PUSH1 0x40 MLOAD DUP1 SWAP2 SUB SWAP1 RETURN JUMPDEST PUSH2 0x127 PUSH1 0x4 DUP1 CALLDATASIZE SUB DUP2 ADD SWAP1 PUSH2 0x122 SWAP2 SWAP1 PUSH2 0x61D JUMP JUMPDEST PUSH2 0x573 JUMP JUMPDEST PUSH1 0x40 MLOAD PUSH2 0x134 SWAP2 SWAP1 PUSH2 0x7E8 JUMP JUMPDEST PUSH1 0x40 MLOAD DUP1 SWAP2 SUB SWAP1 RETURN JUMPDEST PUSH1 0x2 PUSH1 0x0 CALLER PUSH20 0xFFFFFFFFFFFFFFFFFFFFFFFFFFFFFFFFFFFFFFFF AND PUSH20 0xFFFFFFFFFFFFFFFFFFFFFFFFFFFFFFFFFFFFFFFF AND DUP2 MSTORE PUSH1 0x20 ADD SWAP1 DUP2 MSTORE PUSH1 0x20 ADD PUSH1 0x0 KECCAK256 PUSH1 0x0 SWAP1 SLOAD SWAP1 PUSH2 0x100 EXP SWAP1 DIV PUSH1 0xFF AND PUSH2 0x1C9 JUMPI PUSH1 0x40 MLOAD PUSH32 0x8C379A000000000000000000000000000000000000000000000000000000000 DUP2 MSTORE PUSH1 0x4 ADD PUSH2 0x1C0 SWAP1 PUSH2 0x84F JUMP JUMPDEST PUSH1 0x40 MLOAD DUP1 SWAP2 SUB SWAP1 REVERT JUMPDEST PUSH1 0x2 PUSH1 0x0 CALLER PUSH20 0xFFFFFFFFFFFFFFFFFFFFFFFFFFFFFFFFFFFFFFFF AND PUSH20 0xFFFFFFFFFFFFFFFFFFFFFFFFFFFFFFFFFFFFFFFF AND DUP2 MSTORE PUSH1 0x20 ADD SWAP1 DUP2 MSTORE PUSH1 0x20 ADD PUSH1 0x0 KECCAK256 PUSH1 0x0 SWAP1 SLOAD SWAP1 PUSH2 0x100 EXP SWAP1 DIV PUSH1 0xFF AND ISZERO PUSH2 0x256 JUMPI PUSH1 0x40 MLOAD PUSH32 0x8C379A000000000000000000000000000000000000000000000000000000000 DUP2 MSTORE PUSH1 0x4 ADD PUSH2 0x24D SWAP1 PUSH2 0x8BB JUMP JUMPDEST PUSH1 0x40 MLOAD DUP1 SWAP2 SUB SWAP1 REVERT JUMPDEST PUSH1 0x0 DUP2 GT DUP1 ISZERO PUSH2 0x268 JUMPI POP PUSH1 0x1 SLOAD DUP2 GT ISZERO JUMPDEST PUSH2 0x2A7 JUMPI PUSH1 0x40 MLOAD PUSH32 0x8C379A000000000000000000000000000000000000000000000000000000000 DUP2 MSTORE PUSH1 0x4 ADD PUSH2 0x29E SWAP1 PUSH2 0x927 JUMP JUMPDEST PUSH1 0x40 MLOAD DUP1 SWAP2 SUB SWAP1 REVERT JUMPDEST PUSH1 0x1 PUSH1 0x2 PUSH1 0x0 CALLER PUSH20 0xFFFFFFFFFFFFFFFFFFFFFFFFFFFFFFFFFFFFFFFF AND PUSH20 0xFFFFFFFFFFFFFFFFFFFFFFFFFFFFFFFFFFFFFFFF AND DUP2 MSTORE PUSH1 0x20 ADD SWAP1 DUP2 MSTORE PUSH1 0x20 ADD PUSH1 0x0 KECCAK256 PUSH1 0x0 PUSH2 0x100 EXP DUP2 SLOAD DUP2 PUSH1 0xFF MUL NOT AND SWAP1 DUP4 ISZERO ISZERO MUL OR SWAP1 SSTORE POP PUSH1 0x0 DUP1 DUP3 DUP2 MSTORE PUSH1 0x20 ADD SWAP1 DUP2 MSTORE PUSH1 0x20 ADD PUSH1 0x0 KECCAK256 PUSH1 0x2 ADD PUSH1 0x0 DUP2 SLOAD DUP1 SWAP3 SWAP2 SWAP1 PUSH2 0x325 SWAP1 PUSH2 0x976 JUMP JUMPDEST SWAP2 SWAP1 POP SSTORE POP DUP1 CALLER PUSH20 0xFFFFFFFFFFFFFFFFFFFFFFFFFFFFFFFFFFFFFFFF AND PUSH32 0x4D99B957A2BC29A30EBD96A7BE8E68FE50A3C701DB28A91436490B7D53870CA4 PUSH1 0x40 MLOAD PUSH1 0x40 MLOAD DUP1 SWAP2 SUB SWAP1 LOG3 POP JUMP JUMPDEST PUSH1 0x2 PUSH1 0x0 CALLER PUSH20 0xFFFFFFFFFFFFFFFFFFFFFFFFFFFFFFFFFFFFFFFF AND PUSH20 0xFFFFFFFFFFFFFFFFFFFFFFFFFFFFFFFFFFFFFFFF AND DUP2 MSTORE PUSH1 0x20 ADD SWAP1 DUP2 MSTORE PUSH1 0x20 ADD PUSH1 0x0 KECCAK256 PUSH1 0x0 SWAP1 SLOAD SWAP1 PUSH2 0x100 EXP SWAP1 DIV PUSH1 0xFF AND ISZERO PUSH2 0x3FE JUMPI PUSH1 0x40 MLOAD PUSH32 0x8C379A000000000000000000000000000000000000000000000000000000000 DUP2 MSTORE PUSH1 0x4 ADD PUSH2 0x3F5 SWAP1 PUSH2 0xA0A JUMP JUMPDEST PUSH1 0x40 MLOAD DUP1 SWAP2 SUB SWAP1 REVERT JUMPDEST PUSH1 0x1 PUSH1 0x2 PUSH1 0x0 CALLER PUSH20 0xFFFFFFFFFFFFFFFFFFFFFFFFFFFFFFFFFFFFFFFF AND PUSH20 0xFFFFFFFFFFFFFFFFFFFFFFFFFFFFFFFFFFFFFFFF AND DUP2 MSTORE PUSH1 0x20 ADD SWAP1 DUP2 MSTORE PUSH1 0x20 ADD PUSH1 0x0 KECCAK256 PUSH1 0x0 PUSH2 0x100 EXP DUP2 SLOAD DUP2 PUSH1 0xFF MUL NOT AND SWAP1 DUP4 ISZERO ISZERO MUL OR SWAP1 SSTORE POP CALLER PUSH20 0xFFFFFFFFFFFFFFFFFFFFFFFFFFFFFFFFFFFFFFFF AND PUSH32 0xB6BE2187D059CC2A55FE29E0E503B566E1E0F8C8780096E185429350ACFFD3DD PUSH1 0x40 MLOAD PUSH1 0x40 MLOAD DUP1 SWAP2 SUB SWAP1 LOG2 JUMP JUMPDEST PUSH1 0x0 PUSH1 0x20 MSTORE DUP1 PUSH1 0x0 MSTORE PUSH1 0x40 PUSH1 0x0 KECCAK256 PUSH1 0x0 SWAP2 POP SWAP1 POP DUP1 PUSH1 0x0 ADD SLOAD SWAP1 DUP1 PUSH1 0x1 ADD DUP1 SLOAD PUSH2 0x4C4 SWAP1 PUSH2 0xA59 JUMP JUMPDEST DUP1 PUSH1 0x1F ADD PUSH1 0x20 DUP1 SWAP2 DIV MUL PUSH1 0x20 ADD PUSH1 0x40 MLOAD SWAP1 DUP2 ADD PUSH1 0x40 MSTORE DUP1 SWAP3 SWAP2 SWAP1 DUP2 DUP2 MSTORE PUSH1 0x20 ADD DUP3 DUP1 SLOAD PUSH2 0x4F0 SWAP1 PUSH2 0xA59 JUMP JUMPDEST DUP1 ISZERO PUSH2 0x53D JUMPI DUP1 PUSH1 0x1F LT PUSH2 0x512 JUMPI PUSH2 0x100 DUP1 DUP4 SLOAD DIV MUL DUP4 MSTORE SWAP2 PUSH1 0x20 ADD SWAP2 PUSH2 0x53D JUMP JUMPDEST DUP3 ADD SWAP2 SWAP1 PUSH1 0x0 MSTORE PUSH1 0x20 PUSH1 0x0 KECCAK256 SWAP1 JUMPDEST DUP2 SLOAD DUP2 MSTORE SWAP1 PUSH1 0x1 ADD SWAP1 PUSH1 0x20 ADD DUP1 DUP4 GT PUSH2 0x520 JUMPI DUP3 SWAP1 SUB PUSH1 0x1F AND DUP3 ADD SWAP2 JUMPDEST POP POP POP POP POP SWAP1 DUP1 PUSH1 0x2 ADD SLOAD SWAP1 POP DUP4 JUMP JUMPDEST PUSH1 0x2 PUSH1 0x20 MSTORE DUP1 PUSH1 0x0 MSTORE PUSH1 0x40 PUSH1 0x0 KECCAK256 PUSH1 0x0 SWAP2 POP SLOAD SWAP1 PUSH2 0x100 EXP SWAP1 DIV PUSH1 0xFF AND DUP2 JUMP JUMPDEST PUSH1 0x1 SLOAD DUP2 JUMP JUMPDEST PUSH1 0x0 DUP1 DUP3 GT DUP1 ISZERO PUSH2 0x586 JUMPI POP PUSH1 0x1 SLOAD DUP3 GT ISZERO JUMPDEST PUSH2 0x5C5 JUMPI PUSH1 0x40 MLOAD PUSH32 0x8C379A000000000000000000000000000000000000000000000000000000000 DUP2 MSTORE PUSH1 0x4 ADD PUSH2 0x5BC SWAP1 PUSH2 0x927 JUMP JUMPDEST PUSH1 0x40 MLOAD DUP1 SWAP2 SUB SWAP1 REVERT JUMPDEST PUSH1 0x0 DUP1 DUP4 DUP2 MSTORE PUSH1 0x20 ADD SWAP1 DUP2 MSTORE PUSH1 0x20 ADD PUSH1 0x0 KECCAK256 PUSH1 0x2 ADD SLOAD SWAP1 POP SWAP2 SWAP1 POP JUMP JUMPDEST PUSH1 0x0 DUP1 REVERT JUMPDEST PUSH1 0x0 DUP2 SWAP1 POP SWAP2 SWAP1 POP JUMP JUMPDEST PUSH2 0x5FA DUP2 PUSH2 0x5E7 JUMP JUMPDEST DUP2 EQ PUSH2 0x605 JUMPI PUSH1 0x0 DUP1 REVERT JUMPDEST POP JUMP JUMPDEST PUSH1 0x0 DUP2 CALLDATALOAD SWAP1 POP PUSH2 0x617 DUP2 PUSH2 0x5F1 JUMP JUMPDEST SWAP3 SWAP2 POP POP JUMP JUMPDEST PUSH1 0x0 PUSH1 0x20 DUP3 DUP5 SUB SLT ISZERO PUSH2 0x633 JUMPI PUSH2 0x632 PUSH2 0x5E2 JUMP JUMPDEST JUMPDEST PUSH1 0x0 PUSH2 0x641 DUP5 DUP3 DUP6 ADD PUSH2 0x608 JUMP JUMPDEST SWAP2 POP POP SWAP3 SWAP2 POP POP JUMP JUMPDEST PUSH2 0x653 DUP2 PUSH2 0x5E7 JUMP JUMPDEST DUP3 MSTORE POP POP JUMP JUMPDEST PUSH1 0x0 DUP2 MLOAD SWAP1 POP SWAP2 SWAP1 POP JUMP JUMPDEST PUSH1 0x0 DUP3 DUP3 MSTORE PUSH1 0x20 DUP3 ADD SWAP1 POP SWAP3 SWAP2 POP POP JUMP JUMPDEST PUSH1 0x0 JUMPDEST DUP4 DUP2 LT ISZERO PUSH2 0x693 JUMPI DUP1 DUP3 ADD MLOAD DUP2 DUP5 ADD MSTORE PUSH1 0x20 DUP2 ADD SWAP1 POP PUSH2 0x678 JUMP JUMPDEST PUSH1 0x0 DUP5 DUP5 ADD MSTORE POP POP POP POP JUMP JUMPDEST PUSH1 0x0 PUSH1 0x1F NOT PUSH1 0x1F DUP4 ADD AND SWAP1 POP SWAP2 SWAP1 POP JUMP JUMPDEST PUSH1 0x0 PUSH2 0x6BB DUP3 PUSH2 0x659 JUMP JUMPDEST PUSH2 0x6C5 DUP2 DUP6 PUSH2 0x664 JUMP JUMPDEST SWAP4 POP PUSH2 0x6D5 DUP2 DUP6 PUSH1 0x20 DUP7 ADD PUSH2 0x675 JUMP JUMPDEST PUSH2 0x6DE DUP2 PUSH2 0x69F JUMP JUMPDEST DUP5 ADD SWAP2 POP POP SWAP3 SWAP2 POP POP JUMP JUMPDEST PUSH1 0x0 PUSH1 0x60 DUP3 ADD SWAP1 POP PUSH2 0x6FE PUSH1 0x0 DUP4 ADD DUP7 PUSH2 0x64A JUMP JUMPDEST DUP2 DUP2 SUB PUSH1 0x20 DUP4 ADD MSTORE PUSH2 0x710 DUP2 DUP6 PUSH2 0x6B0 JUMP JUMPDEST SWAP1 POP PUSH2 0x71F PUSH1 0x40 DUP4 ADD DUP5 PUSH2 0x64A JUMP JUMPDEST SWAP5 SWAP4 POP POP POP POP JUMP JUMPDEST PUSH1 0x0 PUSH20 0xFFFFFFFFFFFFFFFFFFFFFFFFFFFFFFFFFFFFFFFF DUP3 AND SWAP1 POP SWAP2 SWAP1 POP JUMP JUMPDEST PUSH1 0x0 PUSH2 0x752 DUP3 PUSH2 0x727 JUMP JUMPDEST SWAP1 POP SWAP2 SWAP1 POP JUMP JUMPDEST PUSH2 0x762 DUP2 PUSH2 0x747 JUMP JUMPDEST DUP2 EQ PUSH2 0x76D JUMPI PUSH1 0x0 DUP1 REVERT JUMPDEST POP JUMP JUMPDEST PUSH1 0x0 DUP2 CALLDATALOAD SWAP1 POP PUSH2 0x77F DUP2 PUSH2 0x759 JUMP JUMPDEST SWAP3 SWAP2 POP POP JUMP JUMPDEST PUSH1 0x0 PUSH1 0x20 DUP3 DUP5 SUB SLT ISZERO PUSH2 0x79B JUMPI PUSH2 0x79A PUSH2 0x5E2 JUMP JUMPDEST JUMPDEST PUSH1 0x0 PUSH2 0x7A9 DUP5 DUP3 DUP6 ADD PUSH2 0x770 JUMP JUMPDEST SWAP2 POP POP SWAP3 SWAP2 POP POP JUMP JUMPDEST PUSH1 0x0 DUP2 ISZERO ISZERO SWAP1 POP SWAP2 SWAP1 POP JUMP JUMPDEST PUSH2 0x7C7 DUP2 PUSH2 0x7B2 JUMP JUMPDEST DUP3 MSTORE POP POP JUMP JUMPDEST PUSH1 0x0 PUSH1 0x20 DUP3 ADD SWAP1 POP PUSH2 0x7E2 PUSH1 0x0 DUP4 ADD DUP5 PUSH2 0x7BE JUMP JUMPDEST SWAP3 SWAP2 POP POP JUMP JUMPDEST PUSH1 0x0 PUSH1 0x20 DUP3 ADD SWAP1 POP PUSH2 0x7FD PUSH1 0x0 DUP4 ADD DUP5 PUSH2 0x64A JUMP JUMPDEST SWAP3 SWAP2 POP POP JUMP JUMPDEST PUSH32 0x566F746572206E6F7420726567697374657265642E0000000000000000000000 PUSH1 0x0 DUP3 ADD MSTORE POP JUMP JUMPDEST PUSH1 0x0 PUSH2 0x839 PUSH1 0x15 DUP4 PUSH2 0x664 JUMP JUMPDEST SWAP2 POP PUSH2 0x844 DUP3 PUSH2 0x803 JUMP JUMPDEST PUSH1 0x20 DUP3 ADD SWAP1 POP SWAP2 SWAP1 POP JUMP JUMPDEST PUSH1 0x0 PUSH1 0x20 DUP3 ADD SWAP1 POP DUP2 DUP2 SUB PUSH1 0x0 DUP4 ADD MSTORE PUSH2 0x868 DUP2 PUSH2 0x82C JUMP JUMPDEST SWAP1 POP SWAP2 SWAP1 POP JUMP JUMPDEST PUSH32 0x566F7465722068617320616C726561647920766F7465642E0000000000000000 PUSH1 0x0 DUP3 ADD MSTORE POP JUMP JUMPDEST PUSH1 0x0 PUSH2 0x8A5 PUSH1 0x18 DUP4 PUSH2 0x664 JUMP JUMPDEST SWAP2 POP PUSH2 0x8B0 DUP3 PUSH2 0x86F JUMP JUMPDEST PUSH1 0x20 DUP3 ADD SWAP1 POP SWAP2 SWAP1 POP JUMP JUMPDEST PUSH1 0x0 PUSH1 0x20 DUP3 ADD SWAP1 POP DUP2 DUP2 SUB PUSH1 0x0 DUP4 ADD MSTORE PUSH2 0x8D4 DUP2 PUSH2 0x898 JUMP JUMPDEST SWAP1 POP SWAP2 SWAP1 POP JUMP JUMPDEST PUSH32 0x496E76616C69642063616E6469646174652049442E0000000000000000000000 PUSH1 0x0 DUP3 ADD MSTORE POP JUMP JUMPDEST PUSH1 0x0 PUSH2 0x911 PUSH1 0x15 DUP4 PUSH2 0x664 JUMP JUMPDEST SWAP2 POP PUSH2 0x91C DUP3 PUSH2 0x8DB JUMP JUMPDEST PUSH1 0x20 DUP3 ADD SWAP1 POP SWAP2 SWAP1 POP JUMP JUMPDEST PUSH1 0x0 PUSH1 0x20 DUP3 ADD SWAP1 POP DUP2 DUP2 SUB PUSH1 0x0 DUP4 ADD MSTORE PUSH2 0x940 DUP2 PUSH2 0x904 JUMP JUMPDEST SWAP1 POP SWAP2 SWAP1 POP JUMP JUMPDEST PUSH32 0x4E487B7100000000000000000000000000000000000000000000000000000000 PUSH1 0x0 MSTORE PUSH1 0x11 PUSH1 0x4 MSTORE PUSH1 0x24 PUSH1 0x0 REVERT JUMPDEST PUSH1 0x0 PUSH2 0x981 DUP3 PUSH2 0x5E7 JUMP JUMPDEST SWAP2 POP PUSH32 0xFFFFFFFFFFFFFFFFFFFFFFFFFFFFFFFFFFFFFFFFFFFFFFFFFFFFFFFFFFFFFFFF DUP3 SUB PUSH2 0x9B3 JUMPI PUSH2 0x9B2 PUSH2 0x947 JUMP JUMPDEST JUMPDEST PUSH1 0x1 DUP3 ADD SWAP1 POP SWAP2 SWAP1 POP JUMP JUMPDEST PUSH32 0x566F7465722068617320616C726561647920726567697374657265642E000000 PUSH1 0x0 DUP3 ADD MSTORE POP JUMP JUMPDEST PUSH1 0x0 PUSH2 0x9F4 PUSH1 0x1D DUP4 PUSH2 0x664 JUMP JUMPDEST SWAP2 POP PUSH2 0x9FF DUP3 PUSH2 0x9BE JUMP JUMPDEST PUSH1 0x20 DUP3 ADD SWAP1 POP SWAP2 SWAP1 POP JUMP JUMPDEST PUSH1 0x0 PUSH1 0x20 DUP3 ADD SWAP1 POP DUP2 DUP2 SUB PUSH1 0x0 DUP4 ADD MSTORE PUSH2 0xA23 DUP2 PUSH2 0x9E7 JUMP JUMPDEST SWAP1 POP SWAP2 SWAP1 POP JUMP JUMPDEST PUSH32 0x4E487B7100000000000000000000000000000000000000000000000000000000 PUSH1 0x0 MSTORE PUSH1 0x22 PUSH1 0x4 MSTORE PUSH1 0x24 PUSH1 0x0 REVERT JUMPDEST PUSH1 0x0 PUSH1 0x2 DUP3 DIV SWAP1 POP PUSH1 0x1 DUP3 AND DUP1 PUSH2 0xA71 JUMPI PUSH1 0x7F DUP3 AND SWAP2 POP JUMPDEST PUSH1 0x20 DUP3 LT DUP2 SUB PUSH2 0xA84 JUMPI PUSH2 0xA83 PUSH2 0xA2A JUMP JUMPDEST JUMPDEST POP SWAP2 SWAP1 POP JUMP INVALID LOG2 PUSH5 0x6970667358 0x22 SLT KECCAK256 DUP3 PUSH15 0x389F91C4465E635FE98474C0CC8C37 0xE1 NUMBER SWAP1 EXTCODEHASH 0xF8 0xBD 0xE5 NUMBER RETURN CREATE2 0xDC BLOCKHASH DUP12 BASEFEE SWAP9 PUSH5 0x736F6C6343 STOP ADDMOD SHL STOP CALLER "},"methodIdentifiers":{"candidateCount()":"a9a981a3","candidates(uint256)":"3477ee2e","getVotes(uint256)":"ff981099","register()":"1aa3a008","vote(uint256)":"0121b93f","voters(address)":"a3ec138d"}}}}}