{
  "_format": "hh-sol-artifact-1",
  "contractName": "VotingSystem",
  "sourceName": "contracts/Greeter.sol",
  "abi": [
    {
      "inputs": [],
      "stateMutability": "nonpayable",
      "type": "constructor"
    },
    {
      "anonymous": false,
      "inputs": [
        {
          "indexed": true,
          "internalType": "address",
          "name": "voter",
          "type": "address"
        },
        {
          "indexed": true,
          "internalType": "uint256",
          "name": "candidateId",
          "type": "uint256"
        }
      ],
      "name": "Voted",
      "type": "event"
    },
    {
      "anonymous": false,
      "inputs": [
        {
          "indexed": true,
          "internalType": "address",
          "name": "voter",
          "type": "address"
        }
      ],
      "name": "VoterRegistered",
      "type": "event"
    },
    {
      "inputs": [],
      "name": "candidateCount",
      "outputs": [
        {
          "internalType": "uint256",
          "name": "",
          "type": "uint256"
        }
      ],
      "stateMutability": "view",
      "type": "function"
    },
    {
      "inputs": [
        {
          "internalType": "uint256",
          "name": "",
          "type": "uint256"
        }
      ],
      "name": "candidates",
      "outputs": [
        {
          "internalType": "uint256",
          "name": "id",
          "type": "uint256"
        },
        {
          "internalType": "string",
          "name": "name",
          "type": "string"
        },
        {
          "internalType": "uint256",
          "name": "voteCount",
          "type": "uint256"
        }
      ],
      "stateMutability": "view",
      "type": "function"
    },
    {
      "inputs": [
        {
          "internalType": "uint256",
          "name": "_candidateId",
          "type": "uint256"
        }
      ],
      "name": "getVotes",
      "outputs": [
        {
          "internalType": "uint256",
          "name": "",
          "type": "uint256"
        }
      ],
      "stateMutability": "view",
      "type": "function"
    },
    {
      "inputs": [],
      "name": "register",
      "outputs": [],
      "stateMutability": "nonpayable",
      "type": "function"
    },
    {
      "inputs": [
        {
          "internalType": "uint256",
          "name": "_candidateId",
          "type": "uint256"
        }
      ],
      "name": "vote",
      "outputs": [],
      "stateMutability": "nonpayable",
      "type": "function"
    },
    {
      "inputs": [
        {
          "internalType": "address",
          "name": "",
          "type": "address"
        }
      ],
      "name": "voters",
      "outputs": [
        {
          "internalType": "bool",
          "name": "",
          "type": "bool"
        }
      ],
      "stateMutability": "view",
      "type": "function"
    }
  ],
  "bytecode": "0x608060405234801561001057600080fd5b506100556040518060400160405280600b81526020017f43616e646964617465203100000000000000000000000000000000000000000081525061009e60201b60201c565b6100996040518060400160405280600b81526020017f43616e646964617465203200000000000000000000000000000000000000000081525061009e60201b60201c565b6104b1565b600160008154809291906100b190610151565b9190505550604051806060016040528060015481526020018281526020016000815250600080600154815260200190815260200160002060008201518160000155602082015181600101908161010791906103df565b506040820151816002015590505050565b7f4e487b7100000000000000000000000000000000000000000000000000000000600052601160045260246000fd5b6000819050919050565b600061015c82610147565b91507fffffffffffffffffffffffffffffffffffffffffffffffffffffffffffffffff820361018e5761018d610118565b5b600182019050919050565b600081519050919050565b7f4e487b7100000000000000000000000000000000000000000000000000000000600052604160045260246000fd5b7f4e487b7100000000000000000000000000000000000000000000000000000000600052602260045260246000fd5b6000600282049050600182168061021a57607f821691505b60208210810361022d5761022c6101d3565b5b50919050565b60008190508160005260206000209050919050565b60006020601f8301049050919050565b600082821b905092915050565b6000600883026102957fffffffffffffffffffffffffffffffffffffffffffffffffffffffffffffffff82610258565b61029f8683610258565b95508019841693508086168417925050509392505050565b6000819050919050565b60006102dc6102d76102d284610147565b6102b7565b610147565b9050919050565b6000819050919050565b6102f6836102c1565b61030a610302826102e3565b848454610265565b825550505050565b600090565b61031f610312565b61032a8184846102ed565b505050565b5b8181101561034e57610343600082610317565b600181019050610330565b5050565b601f8211156103935761036481610233565b61036d84610248565b8101602085101561037c578190505b61039061038885610248565b83018261032f565b50505b505050565b600082821c905092915050565b60006103b660001984600802610398565b1980831691505092915050565b60006103cf83836103a5565b9150826002028217905092915050565b6103e882610199565b67ffffffffffffffff811115610401576104006101a4565b5b61040b8254610202565b610416828285610352565b600060209050601f8311600181146104495760008415610437578287015190505b61044185826103c3565b8655506104a9565b601f19841661045786610233565b60005b8281101561047f5784890151825560018201915060208501945060208101905061045a565b8683101561049c5784890151610498601f8916826103a5565b8355505b6001600288020188555050505b505050505050565b610ac0806104c06000396000f3fe608060405234801561001057600080fd5b50600436106100625760003560e01c80630121b93f146100675780631aa3a008146100835780633477ee2e1461008d578063a3ec138d146100bf578063a9a981a3146100ef578063ff9810991461010d575b600080fd5b610081600480360381019061007c919061061d565b61013d565b005b61008b610371565b005b6100a760048036038101906100a2919061061d565b61049b565b6040516100b6939291906106e9565b60405180910390f35b6100d960048036038101906100d49190610785565b61054d565b6040516100e691906107cd565b60405180910390f35b6100f761056d565b60405161010491906107e8565b60405180910390f35b6101276004803603810190610122919061061d565b610573565b60405161013491906107e8565b60405180910390f35b600260003373ffffffffffffffffffffffffffffffffffffffff1673ffffffffffffffffffffffffffffffffffffffff16815260200190815260200160002060009054906101000a900460ff166101c9576040517f08c379a00000000000000000000000000000000000000000000000000000000081526004016101c09061084f565b60405180910390fd5b600260003373ffffffffffffffffffffffffffffffffffffffff1673ffffffffffffffffffffffffffffffffffffffff16815260200190815260200160002060009054906101000a900460ff1615610256576040517f08c379a000000000000000000000000000000000000000000000000000000000815260040161024d906108bb565b60405180910390fd5b60008111801561026857506001548111155b6102a7576040517f08c379a000000000000000000000000000000000000000000000000000000000815260040161029e90610927565b60405180910390fd5b6001600260003373ffffffffffffffffffffffffffffffffffffffff1673ffffffffffffffffffffffffffffffffffffffff16815260200190815260200160002060006101000a81548160ff021916908315150217905550600080828152602001908152602001600020600201600081548092919061032590610976565b9190505550803373ffffffffffffffffffffffffffffffffffffffff167f4d99b957a2bc29a30ebd96a7be8e68fe50a3c701db28a91436490b7d53870ca460405160405180910390a350565b600260003373ffffffffffffffffffffffffffffffffffffffff1673ffffffffffffffffffffffffffffffffffffffff16815260200190815260200160002060009054906101000a900460ff16156103fe576040517f08c379a00000000000000000000000000000000000000000000000000000000081526004016103f590610a0a565b60405180910390fd5b6001600260003373ffffffffffffffffffffffffffffffffffffffff1673ffffffffffffffffffffffffffffffffffffffff16815260200190815260200160002060006101000a81548160ff0219169083151502179055503373ffffffffffffffffffffffffffffffffffffffff167fb6be2187d059cc2a55fe29e0e503b566e1e0f8c8780096e185429350acffd3dd60405160405180910390a2565b60006020528060005260406000206000915090508060000154908060010180546104c490610a59565b80601f01602080910402602001604051908101604052809291908181526020018280546104f090610a59565b801561053d5780601f106105125761010080835404028352916020019161053d565b820191906000526020600020905b81548152906001019060200180831161052057829003601f168201915b5050505050908060020154905083565b60026020528060005260406000206000915054906101000a900460ff1681565b60015481565b6000808211801561058657506001548211155b6105c5576040517f08c379a00000000000000000000000000000000000000000000000000000000081526004016105bc90610927565b60405180910390fd5b600080838152602001908152602001600020600201549050919050565b600080fd5b6000819050919050565b6105fa816105e7565b811461060557600080fd5b50565b600081359050610617816105f1565b92915050565b600060208284031215610633576106326105e2565b5b600061064184828501610608565b91505092915050565b610653816105e7565b82525050565b600081519050919050565b600082825260208201905092915050565b60005b83811015610693578082015181840152602081019050610678565b60008484015250505050565b6000601f19601f8301169050919050565b60006106bb82610659565b6106c58185610664565b93506106d5818560208601610675565b6106de8161069f565b840191505092915050565b60006060820190506106fe600083018661064a565b818103602083015261071081856106b0565b905061071f604083018461064a565b949350505050565b600073ffffffffffffffffffffffffffffffffffffffff82169050919050565b600061075282610727565b9050919050565b61076281610747565b811461076d57600080fd5b50565b60008135905061077f81610759565b92915050565b60006020828403121561079b5761079a6105e2565b5b60006107a984828501610770565b91505092915050565b60008115159050919050565b6107c7816107b2565b82525050565b60006020820190506107e260008301846107be565b92915050565b60006020820190506107fd600083018461064a565b92915050565b7f566f746572206e6f7420726567697374657265642e0000000000000000000000600082015250565b6000610839601583610664565b915061084482610803565b602082019050919050565b600060208201905081810360008301526108688161082c565b9050919050565b7f566f7465722068617320616c726561647920766f7465642e0000000000000000600082015250565b60006108a5601883610664565b91506108b08261086f565b602082019050919050565b600060208201905081810360008301526108d481610898565b9050919050565b7f496e76616c69642063616e6469646174652049442e0000000000000000000000600082015250565b6000610911601583610664565b915061091c826108db565b602082019050919050565b6000602082019050818103600083015261094081610904565b9050919050565b7f4e487b7100000000000000000000000000000000000000000000000000000000600052601160045260246000fd5b6000610981826105e7565b91507fffffffffffffffffffffffffffffffffffffffffffffffffffffffffffffffff82036109b3576109b2610947565b5b600182019050919050565b7f566f7465722068617320616c726561647920726567697374657265642e000000600082015250565b60006109f4601d83610664565b91506109ff826109be565b602082019050919050565b60006020820190508181036000830152610a23816109e7565b9050919050565b7f4e487b7100000000000000000000000000000000000000000000000000000000600052602260045260246000fd5b60006002820490506001821680610a7157607f821691505b602082108103610a8457610a83610a2a565b5b5091905056fea2646970667358221220826e389f91c4465e635fe98474c0cc8c37e143903ff8bde543f3f5dc408b489864736f6c634300081b0033",
  "linkReferences": {},
  "deployedLinkReferences": {}
}